:020000040000fa
:080000000002040000000000f2
:020000040000fa
:100400002f8320004e7e24000e0188000000000093
:100410000c000700a0ab2000010020001100070025
:10042000000020000000e000020032000000020096
:100430000000000084060200000000000040da0016
:100440000000fe004440a900000120000000e00080
:100450000300320000002000a00188004440a800f2
:100460000000060091018800800078000000eb0089
:1004700015003700e280400032a0b4009101ba00bc
:10048000e280400032a0b4009102ba00e280400055
:1004900032a0b4000002eb00472bde00f507b200eb
:1004a000602ce10004003a000059eb008301e900f0
:1004b000fdff3e00040037006128e100010032002a
:1004c0000082eb00040007001101ba000200e00006
:1004d000e8ff3a00000006003159ba008301e90044
:1004e0000c0032002159ba008301e90008003200f3
:1004f0000400e00003003a00e280400032a0b400b3
:10050000f5ff370011d9ba008301e900faff3a007c
:100510008100e800e180400032a0b4000000060045
:100520000040da000000fe00889fbe008a9fbe00e7
:10053000010578000100e0000400350008003c00df
:100540000000e000200032000500370060001000cd
:10055000e080180002003b0001f02c001a00370078
:100560000004be006011b8006b0920000982cf00b2
:10057000020039000882cf000441b00069425200f5
:100580000e00320008003b008281710061016400ae
:100590008904d1000884d3008b05e8000442e800f8
:1005a000f9ff3a00050037000804440089844c0034
:1005b0008b05e9000442e900fbff3a00fc0007005c
:1005c0000af0a70001f0a0004f05be004f04be00d6
:1005d00000000600889fbe008a9fbe008c1f780026
:1005e000190107002001330003866c006450e1000c
:1005f0002e0032006420e100330032006150e1003f
:100600002f0032006120e100310032008585550065
:10061000eb07b000090020000804200005003700a7
:100620000804440089844c000a003100060343009a
:1006300087834b000001530081815b00f8ff33008a
:100640000203be000800a0000804440089844c0096
:10065000f6ff3900c639dd00830173000100320066
:10066000130020008904d1000884d3000998a30056
:10067000050032000800a7000300a0008904d10093
:100680000884d3008b05e8008904d1000884d300d6
:100690000001eb000281d200c500070001f0a100bb
:1006a0000cf0a70001f0a000f80037006420e10082
:1006b000fa0032000801be000200be00f7ff37005a
:1006c0006120e100f50032006000b800f3ff370060
:1006d0000000200001f82700f0ff37000001be00f5
:1006e000f10007000470a70003f0a1006509b10044
:1006f000160032000d0035006828e10006003500c4
:10070000f0ff2f00f1ff27000300e00013003b0083
:100710000100280000000500000040008180480022
:100720008502e900fcff3a0008003700f88f42001c
:1007300002003c008000eb00000005008100d100b9
:100740000080d3008502e800fcff3a000300e000cf
:1007500002003b0060001000e0801800000006006e
:1007600014002000e5003700889fbe008a9fbe006d
:100770008c1f7800b4000700bb00330003866c00b8
:100780006450e100240032006420e10027003200c0
:100790006150e100220032006120e10021003200be
:1007a0008b854200eb07b1000134b800003ab80075
:1007b0000804420089844a00013ab8000030b800b9
:1007c0008880400009014a00040033000000400016
:1007d00081804800020149008b05e900c909dd005c
:1007e000830170000100320013002000c814de00f5
:1007f0004814dd004709de001200b200c808de0020
:10080000088470006a00070001f0a1000cf0a70046
:1008100001f0a0009d0037006120e1009f00320040
:100820000801be000200be00f7ff37006150e10082
:10083000fcff3a009900370003f0a200889fbe0039
:100840008a9fbe008c1f78007f000700860033005f
:100850006450e1004f0032006420e1005200320099
:1008600003826c0007003b000905d0000306d0009e
:10087000820f54000c065d000200390002003200b5
:1008800089017800030678008582550004003d0048
:100890000003fd008103fd008502ea008b85420014
:1008a000840f720002003b0060001000e08018001e
:1008b0006011b8000005eb007a28e1000a00390059
:1008c00006007800c75ddd00f707b200878075007d
:1008d0002d003700828171000a01780061056000f7
:1008e0008180d1000080d3008502e900f9ff3b0040
:1008f000060440008784480002003b0060041400a6
:10090000e0841c000988a300070032008a8171007e
:1009100082817100610164008904d1000884d300e0
:100920008b05e800170037000978a30013003a0090
:100930000b00e000130034008b05e90008044400bc
:1009400089844c000a4474000978a3000d003a0021
:100950000b00e000070034008b05e90008044400a8
:1009600089844c0001003a000b0020000978a300a4
:10097000f7ff32000001eb000200370082817100b6
:100980000a0178000a0007000cf0a70001f0a0009f
:100990003e0037006420e10002003a00838f6c00c3
:1009a0003e0033000801be000200be0037003700e1
:1009b00081002000618055000b003d000b002000ed
:1009c00061fe2f000100e1001d00340082817100f2
:1009d000610164008904d1000884d3000000e800ac
:1009e000faff3a007100200061006400030070000b
:1009f000020060000900320061044400e0844c0001
:100a00000988a500050032008b05e8006808e100b0
:100a100002003a008904d1000884d300f20f2000bc
:100a20000258e10005003d00c75ddd00f907b20096
:100a30008980750008007800000006000bf8270088
:100a40008b007800000005000004be0016000700bf
:100a50000003be000405be000200be001200070035
:100a6000844f7500000006000200be006450e100e3
:100a7000050036006420e100020036000968a3008a
:100a800001003a000800be000160a0004f06780097
:100a90004f05be004f04be0000000600f0ff2f000f
:100aa000f1ff2700f9ff3700c70ade00f107b200a7
:100ab000f50fb20008003200e1cf42000200320020
:100ac0000170a00024000500810f700001003200b9
:100ad0000408050044000500810f700002003a0080
:100ae000140005008502e9000000400081c04800b4
:100af000fcff3b000170a00024000500889fbe00a1
:100b00008a9fbe00841f7800cfff07004f00780047
:100b100011003300f0ff2f00838f6c0006003b00b4
:100b2000040565000a00a7000800370009f0a600c8
:100b30001000200008003700820f5400838f5c00f3
:100b4000030039001000200001003e0000002000da
:100b500009f0a7000000ea004f05be004f04be00e8
:100b60000000e00000000600881f78008a1f78005f
:100b70004400f800080f20002802880000049000bc
:100b800010059000a000900030019000c00190007e
:100b90000300ca000280ca000030cb001a00cd005a
:100ba0004604c3000100ca004604c0001e04c00081
:100bb0000605c0000100cd0021009800050d780059
:100bc000eaba9700052578004400f9004f0578003f
:100bd0004f04780000000600801f78004000b0003d
:100be0000008eb004f007800801f78001000900094
:100bf0000018eb000018eb000008eb004f00780035
:100c0000000006004400f800020f200022028800c5
:100c1000910078003000ca003080ca000000cb008c
:100c20002080ca000000cb003100cd004000ca0087
:100c30000000cb000000cb000010cb003100cd0045
:100c40001180cc004400f90000000600000278008a
:100c50008101780001007800110009000280d800ad
:100c60008400e8000000e000020032000102780089
:100c7000f9ff37008048eb00110009008281d8009d
:100c80008000fd0081017800e94f50000100340030
:100c90006740400005c3b300055240000100e0007a
:100ca000f5ff3a000400780000000600881f780075
:100cb000000478000100e0000200350080017800a7
:100cc0000400370080017800d0c2b300805978005a
:100cd0008100ea0003007800dcff070008007800cc
:080ce0004f047800000006003b
:020000040000fa
:0200000401f009
:04000c00f8ff0000f9
:020000040000fa
:0200000401f009
:04001000fbff0000f2
:020000040000fa
:0200000401f009
:040014007fff00006a
:020000040000fa
:0200000401f009
:04001c00dfff000002
:020000040000fa
:1000080090020000900200009002000090020000a0
:100018009002000090020000900200009002000090
:1000280090020000900200009002000038070000d3
:100038009002000090020000900200009002000070
:100048009002000090020000900200008207000069
:100058009002000090020000900200009002000050
:100068009002000090020000900200009002000040
:100078009002000090020000900200009002000030
:100088009002000090020000900200009002000020
:100098009002000090020000900200009002000010
:1000a8009002000090020000900200009002000000
:1000b80090020000900200009002000090020000f0
:1000c80090020000900200009002000090020000e0
:1000d80090020000900200009002000090020000d0
:1000e80090020000900200009002000090020000c0
:1000f80090020000900200009002000090020000b0
:10010800900200009002000090020000900200009f
:10011800900200009002000090020000900200008f
:10012800900200009002000090020000900200007f
:10013800900200009002000090020000900200006f
:10014800900200009002000090020000900200005f
:10015800900200009002000090020000900200004f
:10016800900200009002000090020000900200003f
:10017800900200009002000090020000900200002f
:10018800900200009002000090020000900200001f
:10019800900200009002000090020000900200000f
:1001a80090020000900200009002000090020000ff
:1001b80090020000900200009002000090020000ef
:1001c80090020000900200009002000090020000df
:1001d80090020000900200009002000090020000cf
:1001e80090020000900200009002000090020000bf
:0801f8009002000090020000db
:020000040000fa
:10020800900200009002000090020000900200009e
:10021800900200009002000090020000900200008e
:1002280090020000900200009002000038070000d1
:10023800900200009002000090020000900200006e
:100248009002000090020000900200008207000067
:10025800900200009002000090020000900200004e
:10026800900200009002000090020000900200003e
:10027800900200009002000090020000900200002e
:10028800900200009002000090020000900200001e
:10029800900200009002000090020000900200000e
:1002a80090020000900200009002000090020000fe
:1002b80090020000900200009002000090020000ee
:1002c80090020000900200009002000090020000de
:1002d80090020000900200009002000090020000ce
:1002e80090020000900200009002000090020000be
:1002f80090020000900200009002000090020000ae
:10030800900200009002000090020000900200009d
:10031800900200009002000090020000900200008d
:10032800900200009002000090020000900200007d
:10033800900200009002000090020000900200006d
:10034800900200009002000090020000900200005d
:10035800900200009002000090020000900200004d
:10036800900200009002000090020000900200003d
:10037800900200009002000090020000900200002d
:10038800900200009002000090020000900200001d
:10039800900200009002000090020000900200000d
:1003a80090020000900200009002000090020000fd
:1003b80090020000900200009002000090020000ed
:1003c80090020000900200009002000090020000dd
:1003d80090020000900200009002000090020000cd
:1003e80090020000900200009002000090020000bd
:0803f8009002000090020000d9
:020000040000fa
:100ce80030250000003200003525000000350000e6
:100cf8003025000000370000352500000000000006
:020000040000fa
:100d08000200fa000080eb006019880000802000d3
:100d18007040880060802000c0408800407f240028
:100d280080408800a07f2400d0408800e080200018
:100d3800a7ff070080812000a5ff0700e1802000b1
:100d480060822000adff070081812000c082200062
:100d5800aaff0700a8010700c7010700ee01070066
:100d6800c002a800c022a800c042a800c062a80013
:100d7800c982a900c9c2a900cb82a900cbc2a90017
:100d8800c0c1bf006f406000c0e1b700011c200077
:100d98009140780030cfb30000c06000c0e1b700d8
:100da800011c200091407800c0cfb30000c0600053
:100db800c0e1b7000000eb00100e88008019200089
:100dc800200e8800c941a800c921a800c901a800af
:100dd800c8c1a900c8a1a800c881a800c841a90025
:100de800c821a900c801a90080192000b00e8800f8
:100df80080192000c00e8800c1e1a800a4702d0051
:100e080035ca2300d2cc2c00c3e42300303323009e
:100e180031f3230072000700a4702d0035ca2300a7
:100e2800d2cc2c00c3e423003033230031f3230059
:100e3800cd00070080eb2500b040880080eb25003e
:100e480000418800b09f2300a0408800b09f230085
:100e5800f0408800e080200041ff070080812000ea
:100e68003fff0700fbff37003600f800809fbe00f9
:100e7800829fbe00849fbe00869fbe003400f8009b
:100e880000002000a00188000200fa00200f800066
:100e9800000f78001e00e00001003d001e0fea0070
:100ea80010418000204188001e0078001041880011
:100eb800114180002041800000805000cf80de007a
:100ec80097fd070062392400b3c02300bffd070067
:100ed80000fe0700604088008460a9000080fa00d6
:100ee8003400f9004f03be004f02be004f01be00a0
:100ef8004f00be003600f900004006003600f8003a
:100f0800809fbe00829fbe00849fbe00869fbe0059
:100f18003400f80000002000a00188001600fa0044
:100f2800f9000700004f7800614080000e00e800db
:100f3800a20020005bff070000c3b3009e4f100013
:100f480007003a000000eb00b00e88004067280058
:100f5800000107000e00e800fe0007001700370038
:100f680010c3b3009e4f100005003a00c00c2000cb
:100f7800b00e880070672800f60007000f003700e1
:100f880020c3b3009e4f100005003a0080192000ce
:100f9800b00e8800b0672800ee0007000700370091
:100fa80030c3b3009e4f100004003a0040262000d2
:100fb800b00e8800f0672800e60007008560a900e9
:100fc8000080fa003400f9004f03be004f02be0053
:100fd8004f01be004f00be003600f9000040060079
:100fe8001200fa00008fbe0022079800330798000d
:100ff80044079800550798006011b8001e00be000d
:10100800d5fd07000000e000010035000a003700a8
:1010180002002000037024001e00be00d0fd07005f
:101028000200200003f0230001fe0700a9fd0700cd
:10103800000f98000900370002e02f00f36f24002a
:101048001e00be00c6fd07000200200003f02300ba
:10105800f8fd07009ffd0700000f98000e0890009c
:10106800304188006011b8002e009000be0090004a
:10107800b9fd07000000e000010035000b00370053
:1010880002002000037024002e009000be00900093
:10109800b3fd07000200200003f02300e4fd070071
:1010a8008cfd0700700798000a00370002e02f0047
:1010b800f36f24002e009000be009000a8fd0700ea
:1010c8000200200003f02300dafd070081fd07007d
:1010d800700798007e009000404188006011b800b9
:1010e8004e009000de0090009bfd07000000e0002d
:1010f800010035000b0037000200200003702400b7
:101108004e009000de00900095fd070002002000d0
:1011180003f02300c6fd07006efd07006007980076
:101128000a00370002e02f00f36f24004e00900001
:10113800de0090008afd07000200200003f0230073
:10114800bcfd070063fd0700600798006e00900073
:1011580050418800e180200060822000a7fe07003f
:101168000080fa00000006001200fa00008fbe009e
:1011780022079800330798004407980055079800fd
:101188006011b8001e00be0073fd07000000e000fb
:10119800010035000a003700020020000370240017
:1011a8001e00be006efd07000200200003f02300b1
:1011b8009ffd070047fd0700000f98000900370052
:1011c80002e02f00f36f24001e00be0064fd07003c
:1011d8000200200003f0230096fd07003dfd0700f4
:1011e800000f98000e089000604188006011b80058
:1011f8002e009000be00900057fd07000000e000a0
:10120800010035000b0037000200200003702400a5
:101218002e009000be00900051fd07000200200043
:1012280003f0230082fd07002afd070070079800dd
:101238000a00370002e02f00f36f24002e00900010
:10124800be00900046fd07000200200003f02300c6
:1012580078fd07001ffd0700700798007e009000ca
:10126800704188006011b8004e009000de009000c8
:1012780039fd07000000e000010035000b003700d1
:1012880002002000037024004e009000de00900051
:1012980033fd07000200200003f0230064fd07006f
:1012a8000cfd0700600798000a00370002e02f00d5
:1012b800f36f24004e009000de00900028fd070028
:1012c8000200200003f023005afd070001fd07007b
:1012d800600798006e00900080418800818120009e
:1012e800c082200045fe07000080fa0000000600ca
:1012f8000000fa0022c2bf00614060000080fb00cd
:101308000080fa00000006000000fa0022c2bf00b8
:10131800614060000004e000fcff320030118000f2
:101328000080fb000080fa00000006000200fa00be
:10133800004f780023c2bf00624060000004e00054
:10134800fcff3a001e00fb00201188000080fa0014
:10135800000006000600fa00200798002000200080
:10136800100798000000eb00000f78000700370016
:101378001e007800800078002e0090000080400059
:1013880010407800e9ff07001e0fe8001e009000db
:101398000000e8009e0f5000070034001e0078008f
:1013a800800078002e0090000080400010407800f7
:1013b8000004e000eeff3a00a0c0b300dbff070026
:1013c8000080fa00000006000200fa00200f8000ea
:1013d800000f78001e00e00001003d001e0fea002b
:1013e80010418000204188001e00780010418800cc
:1013f8000080fa00000006000000fa00416a2000a0
:101408009140780000ceb30000c060009040b30067
:10141800a4e6b700816c20009140780000ceb300ac
:1014280000c060003040b300c8e6b700f0052000f7
:10143800401188000000eb00001188002062a8001d
:101448000000eb001011880022c2bf00f043b20078
:1014580022e2b70022c2bf00f043b20022e2b70086
:101468009560a80021e2a8002342a8008560a90091
:101478000080fa00000006000000fa00c1692000a0
:101488009140780000ceb30000c060006040b30017
:101498009ce6b700d16920009140780000ceb300e7
:1014a80000c060005040b3009de6b700111e200048
:1014b8009140780080cfb30000c06000e1e1b70040
:1014c800e1e1a900e1a1a900e0e1a900e0c1a900ca
:1014d800e301a800e2e1a800211e20009140780065
:1014e800f0c8b30000c0600001c4b3000140700040
:1014f800e2e1b7000000eb00200f88000032200076
:10150800300f8800e1c1bf007040b300e1e1b700cf
:101518000080fa00000006000000fa000000eb005e
:101528000008880005e1a90005a1a90004c1a900d7
:101538000421a9004110200091407800f0ccb300ac
:1015480000c0600001c2b3000140700004e1b700b0
:10155800801e2000100888008460a9009460a800fc
:0c15680005e1a8000080fa000000060069
:020000040000fa
:10157400220800001000000002000000000000002b
:101584000000000000000000000000000000000057
:10159400000000000c08000016000000000000001d
:1015a400000800000c00000000000000f4470000e8
:0c15b4000c00000000000000000000001f
:00000001FF
